:020000040800F2
:10000000100600200D3700087F36000881360008F2
:1000100000000000000000000000000000000000E0
:10002000000000000000000000000000833600080F
:100030000000000000000000853600088736000838
:10004000671300081B1400086F1400086F190008DC
:100050007319000877190008BF3400088F360008AC
:1000600000000000733600089B360008FB360008CD
:10007000253700082737000800000000293700084E
:10008000000000002B370008000000000000000006
:100090002D370008000000002F3700083137000816
:1000A000333700083537000837370008393700087C
:1000B0003B3700083D37000800000000000000004A
:1000C000FDB5B6B03E9801AA0023002418C20691DF
:1000D00004A93B2288540F9319A8401C33900F2089
:1000E0006946887013E0379C3500369F2178069862
:1000F000B8470690002800D140E10F98401C0F90AF
:10010000641C6D1EF2D13697379880193790379856
:10011000007825280ED1002009900A900B900C90B1
:100120000D900E90002102240420189008201490B5
:10013000379D0FE001AA0021C943379801F0C0F8AC
:10014000060001D10F981BE1CDD50126DCE70800A0
:10015000012101436D1C28782028F8D023280BD0DA
:100160002B2804D02D2804D0302808D00AE02143C1
:10017000F0E708001899ECE708000821E9E7080013
:100180001021E6E72A280FD1389802681068121D5E
:10019000389B1A601190002804D542421192080041
:1001A000189901436D1C12E000201190B84A09E033
:1001B000119B934205DA9E00F3185B001818303843
:1001C00011906D1C28780300303B0A2BF0D328785F
:1001D0002E2803D00020C043109027E06D1C287803
:1001E0002A2808D1389800680268001D389B1860DA
:1001F00010926D1C1AE02D2802D12D226D1C00E0FA
:10020000002200201090A24B0BE0002A08D1109E83
:100210009E4205DAB700BE197600301830381090CB
:100220006D1C28780600303E0A2EEED304A8018704
:100230002E78310056487844FF30573001F052F89C
:10024000002801D06D1C00E0002604A83A21465485
:10025000405C682804D1287868280BD1622005E02A
:100260006C2807D128786C2804D1712004A93A227F
:1002700088546D1C24A80890287869460870681C6A
:100280003790684605782800253834D01C3800D1CE
:100290009AE1001F022800D896E10E3831D0401FA5
:1002A00001D100F010FD093800D18DE1801E01D18F
:1002B00000F0A7FD401E01D100F053FD401E0228B2
:1002C00000D881E1001F01D100F04BFD401F00D19B
:1002D000D0E0401E01D100F0F6FC401E78D0C01ED8
:1002E00027D0801E01D100F0EEFCC01E01D100F02D
:1002F000EAFC00F0A5FD252024A908700120099042
:1003000034E06C2004A93A228854389800680268C6
:10031000001D38990860002A53D104A83B21405C95
:1003200000284AD00024E44358487844FF305F3026
:1003300018E004A83A21405C6C28E6D038980068A0
:100340000468001D389908600794002C22D104A885
:100350003B21405C002815D00024E4434D487844FC
:10036000FF30333000F0C8FF201A07D124AA04A9B7
:10037000369800F074FD002800D4C8E60020C04381
:1003800039B0F0BD44487844FF300F300790EDE7B6
:10039000A4300000109D002D03D5200000F0D0FFF8
:1003A00009E02A000021200000F0D2FF002801D03F
:1003B000001B00E028000A90D8E7384A7A44FF3250
:1003C000233A04A9369800F0D4FD0028CED5D5E70D
:1003D000389800680268001D389908600020C04302
:1003E0000021104004AA03C224A80790089B3C24C3
:1003F00004A803C8002904D1002802D1109A002AB9
:1004000014D0641E6D46AD7805403035EEB23A2EFC
:1004100000DB27351D5500090A071043090901D1E2
:10042000002803D0079A1D19AA42EAD33C20001BDA
:100430000A90191907911099884207DA081A0C9046
:1004400004A8018FB94A0A4002878FE700298DD599
:1004500004A93822895C14220A40102A86D11199F5
:10046000099A891A0C9A891A081A002800DC7DE773
:100470000C907BE704A83B21415C002910D00024AC
:10048000E4434F487844FF3039306BE700300000D8
:10049000CBCCCC0CD82F0000F02F00000C3000008B
:1004A0003A21405C62286BD068281CD06A2847D06B
:1004B0006C2806D0712855D0742833D07A2823D0E0
:1004C0006FE0389800680168001D389A10600029B4
:1004D00006D10024E4433B487844FF30173841E715
:1004E0000F98086042E7389800680168001D389A44
:1004F0001060002905D10024E44332487844C43018
:1005000030E70F98088031E7389800680168001DCF
:10051000389A10600029E3D10024E4432948784444
:10052000A2301FE7389800680168001D389A1060F3
:100530000029D5D10024E44322487844863011E7CD
:10054000389800680268001D38990860002A05D1B3
:100550000024E4431B4878446A3003E70F98C1172E
:1005600003C203E7389800680268001D38990860E4
:10057000002AF3D10024E443124878444630F1E6DF
:10058000389800680168001D389A1060002905D16C
:100590000024E4430B4878442A30E3E60F980870BF
:1005A000E4E6389800680168001D389A1060002958
:1005B00096D10024E443034878440830D2E600BFD3
:1005C0007C2E0000902E000038980268D21D072073
:1005D00082433898026003CA389B1A6004AA03C297
:1005E000C80F02D009982D210AE004A8008F2042EC
:1005F00002D009982B2103E0C00705D509982021D6
:1006000024AA1154401C099024A80999431807935F
:1006100019AA04A803C816AC03C4684600782021B0
:10062000014368464170612909D01098002801D51E
:10063000062003E003D1672901D10120109004A80E
:1006400003C808004C006415641C14D1090312D0BF
:1006500003200A90613D1A2D04D251497944FF319B
:10066000413103E04F497944FF313B310322180007
:1006700000F094FE7AE6002C0BD1000309D1032090
:100680000A90613D1A2D18D347497944FF311B3137
:10069000ECE704A803C834AB03C334A830C8BEA039
:1006A00003C82040294080256D03A9420AD20026B4
:1006B00034AB30CB604069400EE03C497944FF31B7
:1006C0001339D3E7080DB1A6C0CE361834A803C835
:1006D000B34D0D40AF49294304AB03C3684640788E
:1006E00061280FD1079830210170811C079169465C
:1006F0000978612901D1782100E0582141700998D9
:10070000801C099004A803C8A3A430CC04400D4069
:1007100002D1002C00D186E168464078612800D0E3
:10072000BFE01098002803D5212002E0EFFF000071
:10073000401C1590159F7F1C16A803C8002200239B
:1007400000F039FE04A830C802D2802000064540DF
:10075000361F039619A90A7019A8461C002F57DDE9
:1007600020002900002280235B0300F03DFE4FD8CB
:1007700028004A00530D1A001C32002B18D0002A02
:1007800016DDB54B9A4205DB1B0580221206104090
:10079000184310E082480840110501430D000CE0A9
:1007A0000C2D00000C2D0000102D0000082D000065
:1007B000802212061040002405002000290000F0CD
:1007C0002DFE1690FF1F002F09DD00F061FE0200D4
:1007D0000B002000290000F0C2FE04000D00F01DF7
:1007E00007210F226B469A70169A002A0BDD491ECC
:1007F00009D4401E6E46B678164006701211F4E712
:10080000401E00220270491EFAD5C61D002FA7DC2B
:1008100019A83399711A19AA521C159B0C009942F8
:1008200000DD1C00002C35D48C4206DA411C095D29
:10083000082902DB6946897800E00021230019AD10
:10084000ED1801E0641E6D1E5B1E2E788E42F9D0FD
:100850000F2904D1411CC95C491C401CC154002B08
:1008600004D519AA641C0398001D0390611E11D4BD
:100870005318684600781D783035EEB23A2E02DB08
:1008800006003A3EAD191D70491E5B1E0029F2D5C7
:10089000694608701098002800D4C3E0601E1090CC
:1008A000C0E016A830C86D006D086D49300048439F
:1008B0006C4900F0CBFE039007200399401A05DD38
:1008C00002002000290000F044FC0AE0424200201F
:1008D000654900F03EFC02000B002000290000F0FA
:1008E000E4FE6A465278662A02D1039A0A3200E090
:1008F0000622109B9A18142A00DD142219AB30240A
:100900001C705C1C02E016A803C8159A002A49DD79
:1009100016AB03C3159216A803C800F091FD2390EF
:1009200006460834189D30000A2100F0A3FE0F008F
:1009300030000A2100F09EFE06003037601E07706E
:1009400030000A2100F096FE0F0030000A2100F06E
:1009500091FE0600A41E303727706D1EE3D10834C7
:100960001598083815900028CDDD239800F080FDFB
:1009700002000B0016A803C800F0F1FD00223B4B5B
:1009800000F0F4FE16AA03C2C5E700BF02FCFFFF99
:10099000FFFFFFFF0000E03FFFFFFFFFFFFFFF7FC4
:1009A000FFFF0F803398201A19A94A1C039902E00F
:1009B000401E491E521C1378302BF9D00391694612
:1009C0004978662902D10399491C06E069464978AD
:1009D000652901D1012100E00021109B5C18A04293
:1009E00000DA441E002C1DD4844204DA105D342841
:1009F00001DD392100E030212300501EC51801E03F
:100A0000641E6D1E5B1E2E788E42F9D0392902D1EC
:100A1000D15C491CD154002B04D50200641C0398FE
:100A2000401C0390039D03926846067800F052FC38
:100A3000406A007869460870109F20B2002804DCE4
:100A400001240648784414300390684640786628AC
:100A50000ED16D1C26E000BFFF070000602A0000D9
:100A600097750000A08601000000F03F84D79741F1
:100A700068464078672847D128B20321C943884295
:100A800046DBB84244DA6D1C04A8008F1499C0B24A
:100A9000084203D120B2B84200DA070028B23F1A58
:100AA00000D500270A99079840182EB2002E00DDC5
:100AB000A9E0491C0A9130210170002F05DC04A82F
:100AC000008F1499C0B2084206D00A98411C0A91BE
:100AD00069460978079A11547042874200DA7D42CC
:100AE0002DB268420D907D1920B2854200DA2C00AB
:100AF00024B20B942200039907980A9BC01800F0B7
:100B00004DFC281B0E90C4E0612E14D1702615E018
:100B100020B2B84206DA04A9098F149AC9B2114268
:100B200000D107007F1E00D50027672E01D1652662
:100B300004E0452602E0412E00D150260A98411CCF
:100B40000A9103990978079A11540398411C002FC0
:100B500005DC04A8008F149AC0B2104219D00A987C
:100B6000421C0A926A461278079B1A54002F10DD25
:100B7000641E20B2874200DA3C0022B207980A9B2A
:100B8000C01800F00BFC24B20A9800190A90381B18
:100B90000D9007980A994018067029B2002903D4CD
:100BA0002B214170871C03E02D224270871C4D428F
:100BB000002414A928000D0005E00A2100F046FDDC
:100BC0002970641C6D1C00B20028F6DC012C06DCC8
:100BD00020203043652802D1302038707F1C002C43
:100BE00009D1302038707F1C07E0641E14A8005D16
:100BF000303038707F1C002CF7DC07980A994018B9
:100C0000381A0B9045E021B22AB291421ADA22B288
:100C1000039900F0C3FB24B20A9800190A90311B13
:100C20000D91002F05DC04A9098F149AC9B2114255
:100C300006D069460978079A11540B98401C0B900E
:100C40000E9726E0039900F0A9FB0A9880190A90F4
:100C5000641B002F05DC04A9098F149AC9B2114244
:100C600005D0411C0A9169460978079A115420B2AF
:100C7000874200DA3C0022B20398811907980A9B48
:100C8000C01800F08BFB24B20A9800190A90381B98
:100C90000D9004A83821405C14210140102901D096
:100CA000FFF764FB09980A9940180D9940180B99B1
:100CB00040180E9940181199884201DBFFF756FB46
:100CC000081AFFF7D5FB04AA3A20105C622808D066
:100CD00068280ED06A2814D06C281DD0712810D036
:100CE0001AE0389801680868091D389B1960C0B27D
:100CF00018E0389801680868091D389B196080B2AF
:100D000010E038980368DB1D0720834338980360A0
:100D100003CB389C236006E0389801680868091DF9
:100D2000389B1960002104AB03C3108F1499C0B223
:100D300008425BD004A803C8002901D1002855D07F
:100D4000684600782021014378294FD1099824A9C9
:100D500030220A54401C421C09926A4612780A54F6
:100D600044E004AA3A20105C622808D068280ED01B
:100D70006A2814D06C281DD0712810D01AE0389839
:100D800001680868091D389B196040B218E038985E
:100D900001680868091D389B196000B210E0389896
:100DA0000368DB1D072083433898036003CB389D1D
:100DB0002B6006E0389801680868091D389B1960A7
:100DC000C11704AB03C3002902DA09982D2109E0F9
:100DD000108F204202D009982B2103E0C00705D5CF
:100DE0000998202124AA1154401C099024A809998B
:100DF000401807906846017804A800F01AF9FFF738
:100E0000B5FA04A83A21405C6C280BD00120099067
:100E1000389800680168001D389A106024A8017095
:100E2000FFF7A4FA389800680168001D389A10602E
:100E3000149100201590C043109014AAFFF7C1FA36
:100E4000252024A908700120099068460078002810
:100E500001D1FFF78BFA4D700994FFF787FAFEB5C1
:100E600006000D001700686B6969401A296A401A6C
:100E7000A969401A696A401AE969401AA96A401AC0
:100E800001903820285C400710D420206946087063
:100E9000019800280ADD019C01236A4629003000E0
:100EA00000F080F9002860D1641EF5D13A006B692A
:100EB0002900300000F076F9002856D13027684626
:100EC00007702C6A002C09DD01236A4629003000D6
:100ED00000F068F9002848D1641EF5D1AB69EA68D2
:100EE0002900300000F05EF900283ED16846077006
:100EF0006C6A002C09DD01236A462900300000F0ED
:100F000051F9002831D1641EF5D1EB69E868A9696F
:100F100042182900300000F045F9002825D1684624
:100F20000770AC6A002C09DD01236A4629003000F5
:100F300000F038F9002818D1641EF5D13820285C5B
:100F4000400710D5202069460870019800280ADD66
:100F5000019C01236A462900300000F023F9002893
:100F600003D1641EF5D1002001E00020C04303B08E
:100F7000F0BDF0B5A7B004000D0016002F6B002FD8
:100F800000D5854F00F0B4FC696B081803A9002256
:100F900000230CC1812838D20292069400950024C7
:100FA00025E0AF4234DB00984069401981280BD31B
:100FB0000098446307AA00990698FFF750FF029033
:100FC000002825D4009844610098406905902A00C3
:100FD00001A907A8059BC01800F0E0F90598401981
:100FE000009948613068002812D0361D7F1B002F01
:100FF0000EDD03AA316801A800F067F9050004D4EA
:1010000030680028CDD16D1ECBD50020C0430EE046
:10101000069B009C0298002804D107AA2100180012
:10102000FFF71DFF002802D100216161616327B035
:10103000F0BDF2B586B0040025696F2901D10827FB
:1010400007E0084620210143782901D00A2700E063
:1010500010273C2603CC083C04AA03C26A46127E31
:10106000642A03D06A46127E692A09D1002907DA68
:1010700004A803C800220023121A8B4104A80CC044
:1010800004A803C800290DD100280BD1206B00282B
:1010900008D1082F3BD13820205C000737D53B26EC
:1010A000302033E00294009504A830C8761E0196E3
:1010B000200029003A00FB1700F01FFC3032D0B2AC
:1010C0003A2803DB6846007E513812180098825592
:1010D000200029003A00FB1700F00FFC04000D006F
:1010E00001D1002C05D00298C06800998919884266
:1010F000DCD3029C009D082F09D13820205C00071A
:1011000005D5A85D302802D0761E3020A8553C2099
:10111000801BA061A919E160216B884206DA081AD8
:101120002062208F1D490140218710E000290ED543
:101130003821615C14220A40102A08D1616B62696F
:10114000891A226A891A081A002800DD206207B06D
:10115000F0BDF8B50026124F04000D00009214E017
:10116000C00707D532003B002000290000F0FEFA3E
:1011700004000D000098401000903000390032004B
:101180003B0000F0F3FA06000F0000980028E7D1BA
:1011900020002900F4BD0000FFFFFF7FEFFF0000EB
:1011A00000002440F8B50024002B11D007000E00E9
:1011B00014001D002178B068B847B060002809D03D
:1011C000F06A401CF0620020641C6D1EF2D1040025
:1011D0002000F2BD0020C043F9E7F1B401684218D5
:1011E00041684808131800988068C9071ED5494609
:1011F00040181BE01778521C0770401C761EF9D16E
:10120000002C13D01678521C89080D40032D01D1F3
:101210001578521C290271184D424119A41C05D0A1
:101220000D78491C0570401C641EF9D19A420FD0FC
:101230001178521C032503260E4002D11678F61CA5
:10124000521C0C090F2CD9D114780F34521CD5E73D
:1012500000980C30F2BC70472048704730B4536897
:10126000D41803E05B1C491E641C401C042B06DAE6
:10127000002904D0057825700578002DF2D153603F
:1012800030BC704738B500290ED01D001400FFF7A0
:10129000E5FF616820006A6B90470122D243811A02
:1012A00002D0491E02D004E0012000E00020C0432B
:1012B00032BD0021616032BD80B5DA6B904702BD5E
:1012C00080B5064BFFF7DEFF02BD80B5034BFFF78D
:1012D000F3FF02BD0248704700000000AC00002090
:1012E00074000020C9B202788A4203D0401C002A50
:1012F000F9D1002070472E0080B5002801D100BF31
:1013000007A006490B68002B03D022220021984732
:1013100001E000F027FB222002BD00000C020020AB
:10132000636F6E73747261696E742068616E646C51
:1013300065723A20626164206D6573736167650050
:10134000431C0178401C0942FBD1C01A704743007E
:10135000C9B2521E05D30378401C8B42F9D1401EFE
:10136000704700207047FEE770B4103A03D378C985
:10137000103A78C0FBD2530701D318C918C001D561
:1013800008C908C0D20704D30B880380891C801CBD
:10139000002A01D50B78037070BC70478B0701D110
:1013A0008307E1D0124205D00B78491C0370401C22
:1013B000521EF9D1704730B4012464054D00EC424F
:1013C0000BD85D00EC4208D80C001C4364000443B9
:1013D000144304D2994200D1904230BC7047FCD0F3
:1013E0008B42FAD18242F8E730B4012464054D0003
:1013F000EC420BD85D00EC4208D80C001C436400A2
:101400000443144304D28B4200D1824230BC704763
:10141000FCD09942FAD19042F8E7FEE7F4464A1828
:1014200005D200F00FF801D580174008604700F0A2
:1014300009F80121C907884200D9080040426047E5
:101440004A1812D2400DC90208430121C9070843B6
:10145000520D40210901521A521C06D452421F3229
:1014600001D4D0407047C017704700207047FEE796
:10147000010042221201D21E004207D002D4521EA5
:101480000018FCD5C10A40051205891870470000F4
:101490000100EED54042F446FFF7EBFF0122D207F0
:1014A000114360478B4200D1824205D98446100027
:1014B00062468C4619006346DF184C18640D7F0D98
:1014C0003AD0661C760537D0E61B352E34DCDB02BD
:1014D0002B43DB0A0C0DC9022943C912202E0DDB58
:1014E0001700203E06D01F00F741F3405F40002662
:1014F000012A7741C01871410DD217E01700F7415A
:10150000F2405740F3415A40B340F3405A4000265E
:10151000801859410AD3A21C52050FD0C207012FCF
:10152000724117004008CB0718434908641C240582
:101530004208AF4170416141F0BC7047641C210515
:101540000020F9E76B4010E06B40ABE7F742F3D1C6
:10155000E943F1E72442EFD100200021ECE7F0B4A9
:101560000125ED070F005F40EED40C00871A9C4167
:1015700005D2C01BA141D219634169406B40AE0A3C
:10158000DF184C18F442E1D2640D7F0DE2D0E61B67
:10159000362ED1DCDB022B43DB0AA4460C0DC9023C
:1015A0002943C90A012E28DC04D1D6075208DF07D7
:1015B0003A435B08EF0A76429041994114D0394290
:1015C0003BD1B61940414941761C394204D1761CC1
:1015D000001849413942FAD0B9436746B74208D9A1
:1015E000A41B24052143A7E70042EAD13642E8D1F3
:1015F000A2E7E40AE10700209EE7202E0BDD203E53
:101600001F00F340F7415F40012A002257417E420C
:10161000984191410BE01700F741F2405740F341E8
:101620005A40B340F3405A407E42904199410A03E8
:1016300003D2641EB619404149410027641E2405A7
:101640004208AE4178416141F0BC7047CA0F00D0FA
:10165000494203105A400DD004B500D3404200F077
:1016600009F8009AD20701D34942124200D54042FC
:1016700004BD0000094214D088420FD30122030C9C
:1016800001D100041204002300185B418B4200D3F7
:101690005B1A5241F8D31900100070470100002076
:1016A000704708B500F064F908BDF0B40E005E4064
:1016B0000125ED072E40B446AE0ADF184C18F4425F
:1016C0003BD2F74241D2640D43D07F0D38D0E41BAA
:1016D000C902DB0229432B43CF0ADB0A0600B61AF4
:1016E0009F4104D2641EB6197F41B6185F4168124B
:1016F000800D24180018844222DAE80C0021B61963
:101700007F41B61A9F4102D2B6185F413F1C40414B
:101710004941F4D3241C21DD2405B6197F41B61AB2
:101720009F4105D33743C60737430026012F704139
:10173000614166463143F0BC7047FCD1F74205D2A7
:101740000020C14349054908F3E704D00020C14304
:10175000F1E77F0DFAD000206146ECE72442FAD190
:10176000401C61410F03F6D30020E2E7F0B50E0004
:101770005E400125ED072E40B446AE0ADF184C1836
:10178000F44208D2F7420ED2640D01D07F0D12D17F
:1017900000206146F0BD05D1F74201D87F0D05D18B
:1017A0000020C143F0BDFBD1640DF9D00020C1433E
:1017B000490549088FE0E419C902DB0229432B439C
:1017C000DB0A460DC00231438E4630B487B295B273
:1017D0007D432E0CADB2140C7C43A419260C2404BA
:1017E00025439CB27C43A419190C7943270CC919D1
:1017F000A4B20F043C43090C000C97B247432E0CD3
:10180000BE193543ADB2170C4743360CBF19A6B20B
:10181000BF193E043543240C3E0C36199FB2474392
:10182000BF19BCB23E0C89191F0C47437F183E04F8
:101830003443390C704680B297B247432E0CBE1920
:101840003543ADB2170C4743360CBF19A6B2BF19CA
:101850003E043543240C3E0C36199FB24743BF1952
:10186000BCB23E0C89191F0C47437F183E04344319
:10187000390C77463F0C90B278432E0C8019060441
:10188000ADB22E43050CA0B22D18120C7A4350199C
:10189000020C80B2240CA4189AB27A4312191404D0
:1018A0002043120C89181B0C7B43C91830BCEF0A6B
:1018B000394203D1B61940414941641E6F12BF0D30
:1018C000E41B0BDBFF19BC4211DA24050027420898
:1018D000AE417841614166463143F0BD641C05D19B
:1018E000401C6141CF0201D34908F4E750E75DE7AE
:1018F00080B5FFF7B1FC006C02BD124224D09942C2
:1019000028D970B500251B4202D00C00002109E047
:101910000024012649186441944200D3A41A764158
:10192000F8D33100012601E0764109D20018644164
:101930006D41A41A9D41F7D2A4185D41B619F5D3A3
:10194000300022002B0070BD1B42D8D108B500F03A
:1019500011F808BD01D19042D3D202000B00002142
:101960000020704780B5012000F006F801BDFEE7B9
:101970007047FEE77047FEE780B500BF00BF024A30
:1019800011001820ABBEFBE726000200FEB50600E2
:1019900057D0B64CE0680C2101400091E0688021EE
:1019A0004902084001903078C0070ED54F000098DA
:1019B000082804D00C2868D10198884265D1206895
:1019C000074002D0706800283BD0307880072AD5C5
:1019D000F068BA4F0921C943009A042A05D00C2A9D
:1019E00001D1019A002A00D08AE02268520701D56D
:1019F000002826D062681740326912023A436260BA
:101A0000226811400843206000F082FABD49E26874
:101A10001206120F895CC840BB490860002000F024
:101A2000D5FA010030D1A70D3078C00600D4B3E05C
:101A30000098002800D090E02068800503D5B069A8
:101A4000002800D1A1E16068B0490140306A084334
:101A5000606060680002000AF16909060143616084
:101A60000120316A490B491C8840C003A549E2683E
:101A70001206120F895CC840A3490860002000F0DC
:101A8000A5FA010000D187E0FEBD7068884201D14F
:101A9000206809E0A021C9028842206806D17900A7
:101AA000014321602068790801430AE0B9490140F7
:101AB0002160206879080840029002982068B649A1
:101AC00001402160706800280DD000F0A1FA0500E7
:101AD0002068384000D078E700F09AFA401B65286B
:101AE000F6D30320FEBD00F093FA050020683840CD
:101AF00000D16AE700F08CFA401B6528F6D3F0E7C6
:101B000004220192002817D0226811400843206067
:101B100000F07EFA050020680199014005D100F02F
:101B200077FA401B0228F6D9DBE760680740306986
:101B300000023843606076E7206801218843206016
:101B400000F066FA0500206801990140F3D000F02A
:101B50005FFA401B0228F6D9C3E7B0690028206865
:101B600030D03843206000F053FA0500206880052B
:101B700005D400F04DFA401B0228F7D9B1E76068A0
:101B800062490140306A0843606060680002000AF0
:101B9000F1690906014361603078000730D570694A
:101BA0000028206D1DD001210143216500F030FA8D
:101BB0000500206D800723D400F02AFA401B02287C
:101BC000F7D98EE775490140216000F021FA050040
:101BD00020688005E0D500F01BFA401B0228F7D9E9
:101BE0007FE701218843206500F012FA0500206D8F
:101BF000800705D500F00CFA401B0228F7D970E7E2
:101C00003078400763D5002001903805A16B014072
:101C100004D1A16B0843A0630120019060480068D3
:101C2000384011D15E48006838435D49086000F0D3
:101C3000EFF905005A480068384005D100F0E8F98E
:101C4000401B6528F6D34CE7B168B9420AD0554825
:101C500000290DD0A022D200914209D1206D210D82
:101C600001432165206D0743276508E0001002400D
:101C7000216D4A4A0A402265216D08402065670DA2
:101C8000B06800280CD000F0C3F90500206D384082
:101C900016D100F0BDF9401B9A498842F6D320E7DF
:101CA00000F0B6F90500206D384009D000F0B0F919
:101CB000401B94498842F6D313E700BFFFE0FFFFC3
:101CC0000198002803D0A06B8F490140A163706A7E
:101CD00000285CD000990C2942D08027BF048B4992
:101CE000022820682ED10140216000F091F9050002
:101CF000206838400CD000F08BF9401B0228F7D93F
:101D0000EFE600BF1835000870000020FF1FFFFF3E
:101D1000E0689E490140B06A0843F16A0143306BB4
:101D20000843E060206879080143216000F070F901
:101D30000500206838402AD100F06AF9401B0228CB
:101D4000F7D9CEE60140216000F062F90500206875
:101D500038401CD000F05CF9401B0228F7D9C0E6DF
:101D6000012812D0E068802149020140B26A914204
:101D70000BD1F02189030140F26A914205D1C021C3
:101D800009040140306B814201D00120FEBD0020DA
:101D9000FEBD00BFFFFFFEFFFFFFFBFFFFFEFFFFDB
:101DA00000700040FFFBFFFFF8B5040032D0009147
:101DB0007C480068C107C90F009881420CD279485D
:101DC000016801229143009A0A4302600068C1073A
:101DD000C90F009881426FD1734D2078800705D5D7
:101DE000E868F0218843A1680143E9600127206881
:101DF000384051D06068022802D12968890308E080
:101E0000032802D12968890103E00128296802D149
:101E1000490702D450E089054ED5E9680322914371
:101E20000843E86000F0F4F80600606802280CD16E
:101E3000E8680C21014008292ED000F0E9F8801B49
:101E400030498842F4D30320F2BD03280BD1E8685F
:101E50000C2101400C291FD000F0DAF8801B294921
:101E60008842F4D3EFE701280BD1E8680C21014048
:101E7000042911D000F0CCF8801B22498842F4D309
:101E8000E1E7E8680C21014006D000F0C1F8801BB2
:101E90001C498842F5D3D6E74248009902683A4087
:101EA00091420BD20168B943009A0A43026000686C
:101EB00007400098874201D00120F2BD20784007FA
:101EC00005D5E86839490140E0680843E8602078B2
:101ED000000706D5E868364901402069C00008437C
:101EE000E86000F015F83349EA681206120F895CC1
:101EF000C84031490860002000F068F8010000D1B6
:101F00000020F2BD89130000FFFFFFEFFFFFFFFE7F
:101F1000F0B5254DE9682A4A9308102654080C208C
:101F20000840042804D0082809D00C2809D01DE056
:101F30002868064001D01800F0BD1000F0BD200058
:101F4000F0BD20488F023F0FC05D0902890F491C78
:101F5000EF68FF0301D5604305E02C68264001D0FF
:101F6000584300E05043FFF785FBF0BD686801214E
:101F70000004400F401C8140C803F0BD0E480068BB
:101F800011490E4A1268520508E00000FFFF02FFE7
:101F9000094800680C49094A12689204520F895C8A
:101FA000C84070470020024000100240FFF8FFFFC9
:101FB000FFC7FFFF18350008700000200C1002401A
:101FC0000024F400283500081C37000838B5050047
:101FD0000D4CFA2080002178FFF74CFB01000B48E4
:101FE0000068FFF747FB00F041F800280AD1042DF4
:101FF00008D2002229000020C04300F02CF8A56080
:10200000002032BD012032BD64000020700000209D
:1020100001484068704700BF6400002010B5C2004E
:1020200018231340FF249C40E2438907090E99407E
:10203000030007D5174B0007000F08388008800001
:10204000181803E014489B089B00C01803681A4046
:102050001143016010BD80B5FFF7E0FF01BD012114
:10206000C006C00E81400D480160704710B5401E8B
:1020700080214904884201D3012010BD084C6060D2
:1020800003210020C043FFF7C9FF0020A060072103
:10209000216010BD1CED00E000E400E000E100E084
:1020A00010E000E070B5040001D1012070BD2500F2
:1020B000403500266878002803D12E70200000F0FB
:1020C0001AFB242068702068016801229143016096
:1020D00060682649014020680161216824488A68B7
:1020E00002408A60E1680129A16801D1C24301E090
:1020F000842212020A4321688A60E168022903D11E
:10210000802109012268516021684A68194B1343F4
:102110004B602168CA681040C8602069616901434A
:10212000A069000208432168C860E069216A014390
:10213000206801602068016801220A4302606E6025
:10214000202068702663AE70002070BD20202168BA
:10215000C86121684A68084B13404B602100403138
:102160004870002088700870FEBD0000FFFFFFF07F
:10217000FF7FFFFF0080000200E800FEFEB50400C4
:102180000F0016001D0040304078202800D0A2E04B
:102190000898002803D06846808C002805D180204C
:1021A000800021004031486091E04020205C0128FF
:1021B00000D190E0012040216054FFF729FF0290F8
:1021C000009019230122D103200000F0C1F900285A
:1021D0007DD12B0032002120210040314870402069
:1021E000210040318870002021004031486008986B
:1021F00060626846808C6085002060630298019070
:102200000A9800903900200000F036F9002803D029
:102210000020402160545AE0608DFF283AD9FF2009
:1022200020850020009080235B04FF2239002000DD
:1022300000F040FA0A9E029D2A003100200000F0C2
:10224000B3F9002843D1606A007821688862606A27
:10225000401C60628548618D09186185218D0818D0
:102260002085618D002928D0000426D100953300F7
:1022700000228021200000F06BF9002827D1608D1A
:10228000FF280FD9FF2020850020009080235B04C9
:10229000FF220EE0628D22850020009080239B04A7
:1022A000D2B2C3E7628D22850020009080239B0478
:1022B000D2B23900200000F0FDF9608D0028BBD1BA
:1022C00031002A00200000F098F9002801D00120F8
:1022D000FEBDFFF73BFF0220FEBD0000FEB584B04F
:1022E000060040304178202900D0BBE00C9900293D
:1022F00002D00D9F390003D1802189004160A0E008
:102300004020305C012800D1ACE035004035012090
:102310002870FFF77DFE04003068806900040DD549
:10232000FFF776FE001B1A28F6D3202069680143C8
:10233000696068700020A870287082E00296684684
:10234000038B828A30464030039022206870402000
:10235000039988700026039846600C980299486299
:10236000029847850298466301940E98009068464B
:10237000018A029800F0AEF8002802D00398067097
:102380005FE080204004019039480299498DFF297F
:102390003AD9FF21029A11850090019BFF226846DD
:1023A000018A029800F086F9029D0E9F00943B007E
:1023B00000220421280000F0CBF8002841D1286831
:1023C000406A696A0870686A401C68622749288DFB
:1023D000401828856A8D51186985698D002926D095
:1023E000000424D100943B0000228021280000F04A
:1023F000AFF8002825D1688DFF280DD9FF2028854A
:102400000096019BFF220DE002994A8D0A850090FB
:1024100080239B04D2B2C2E76A8D2A85009680236E
:102420009B04D2B26846018A280000F043F9688D07
:102430000028BBD139002200280000F0DEF8002877
:1024400001D001200FE020202968C86129684A686E
:10245000084B13404B6029004031487000208870C1
:102460000E7000E0022007B0F0BD0000FFFF00008A
:102470000024008000E800FEF8B5060015001C00EE
:10248000079F2B48009080235B04E2B2300000F0ED
:1024900011F93A000699300000F086F8002817D1AB
:1024A000012C09D0280A316888623A000699300068
:1024B00000F07AF800280BD1EDB230688562009701
:1024C000069B00228021300000F042F8002800D056
:1024D0000120F2BDF8B5060015001C00079F144846
:1024E00000900023E2B2300000F0E4F83A000699D0
:1024F000300000F059F8002817D1012C09D0280A23
:10250000316888623A000699300000F04DF80028E2
:102510000BD1EDB2306885620097069B0022402106
:10252000300000F015F8002800D00120F2BD0000B6
:102530000020008000688169890701D5002181623F
:10254000012182690A4002D1826911438161704789
:10255000F8B5002405000F00684602701E002868C8
:1025600080693840B84201D1012000E0002069466E
:102570000978884216D10020C0438642EFD0FFF789
:1025800047FD0699401A864201D3002EE7D1280064
:102590004030202142680A434260417084700470D8
:1025A0000120F2BD0020F2BD70B504000D00160040
:1025B0002068806980071ED432002900200000F0C6
:1025C00040F8002801D0012070BD0020C0438542A2
:1025D000EED0FFF71DFD801B854201D3002DE7D112
:1025E00020004030202142680A43426041700021AF
:1025F00081700170E7E7002070BDF8B52025040068
:102600000E00170020688069284018D13A00310078
:10261000200000F016F800280FD1FFF7F9FCC01BCE
:10262000864201D3002EEDD120004030416829437D
:10263000416045700021817001700120F2BD0020D1
:10264000F2BDF8B5102403689B69234030D0050023
:102650000F000092202628688169314011D10020A6
:10266000C0438742F7D0FFF7D3FC0099401A874256
:1026700001D3002FEFD12800403041683143416041
:1026800010E0C4612868C6612800FFF753FF28687E
:102690004168114A0A4042602800403041680422E3
:1026A0000A43426046700021817001700120F2BD32
:1026B0000020F2BDF0B5059C00684568660D074F27
:1026C0003743BD438905890D294312040A43134347
:1026D0001C434460F0BD000000E800FEFF63FF0300
:1026E0002E48016801220A43026041688022520597
:1026F0000A434260704710B586B0040014220021DE
:1027000001A800F057F82068254988421AD1022014
:10271000244C216801432160216808400090009802
:10272000C020019012200290012003900321049107
:10273000059001A91C4800F047F8E0688021890352
:102740000143E16006B010BD10B586B0040014224C
:10275000002101A800F02EF82068144988421BD1FE
:102760001048C1688022D2020A43C2600421026874
:102770000A4302600068014000910098C0200001F7
:102780000190022002900020039003210491059003
:1027900001A9074800F018F806B010BD3410024037
:1027A000005400402C10024000040050004800403B
:1027B0000008005010B504000800110002002000BD
:1027C00000F0DEF8200010BDFFB5002201230193C8
:1027D0002BE0062603E0614EB042FAD10526AE405A
:1027E0002643029C26605E4C2668DC4326404D68EA
:1027F000ED0300D51E435A4D2E606E6826404F688B
:10280000BF0300D51E436E60AE6826404F68FF02CE
:1028100000D51E43AE60EE6834404E68B60202D565
:1028200026001C003443EC60521C0B681C00D44092
:1028300000D182E0019D95402B40F5D05400032744
:10284000A740FE4302964E68012E05D0022E03D00B
:10285000112E01D0122E0FD18768029E3E40CF6804
:10286000A740374387604668AE434D682D09019FF6
:102870002F40974037434760C568029E2E408D68C1
:10288000A5403543C56095006E4675704D68022DB4
:1028900001D0122D1AD1D508AD0045192E6A039624
:1028A0006E4677781C263E406F463E70039EB446C7
:1028B0000F276E463678B7406646BE43B4460F696A
:1028C0006E463678B740664637432F620768032660
:1028D000029D3D404F683740BC4627006446BC40DF
:1028E0002C4304604C68E4009ED51E4C2468019D76
:1028F00025431C4C25601C4C9508AD0064190294BE
:1029000024686D466F780C253D400F27AF40BC43CF
:10291000A027FF05B84201D1002660E7134FB84257
:1029200001D1019E5BE7124FB84201D1022656E762
:10293000104FB84200D04EE751E7FFBD002A01D04A
:1029400081617047816270470B4A1368034000D170
:10295000704780B5106000F040F901BD001C0050C8
:1029600000040140341002400800014000040050FF
:1029700000080050000C005014040140002200BF69
:10298000094202D0491E4254FCD170477FB5984C91
:102990006170984D0600601CFEF7D2FCFA21890098
:1029A000029180B20190601C009001233200E18806
:1029B00020001830FFF7E2FB2070C82000F04CF92F
:1029C0002178280000F05CF920780028E3D104B0D9
:1029D00070BD0000F8B584B099A700BF90A6844CE4
:1029E000694688810225A570FA20800002900120A6
:1029F0000190A01C0090012368468289A1882000D4
:102A00001830FFF76BFC2070A178300000F038F927
:102A10002178380000F034F920780028E3D1A5703F
:102A200005B0F0BD70B586B000F03EF900F097F843
:102A3000142101A8FFF7A2FF04216F4802680A438E
:102A400002600268114000910099802102680A43E7
:102A500002600268114000910099022102680A4355
:102A6000026000680140009100988024E401634DF9
:102A7000002221002800FFF761FF01940126029641
:102A800000240394049401A92800FFF79DFE30025E
:102A900001905B480290039401A92800FFF794FE7F
:102AA000002200210720FFF7D6FA0720FFF7D7FA08
:102AB0004F4D5448A861E120C000E8612C626E626D
:102AC000AC62EC622C636C63AC6328001830FFF7D7
:102AD000E9FA00212800183000F0FAF80021280057
:102AE000183000F012F948484849016096218901E0
:102AF000416031078160C46004610C2141618461DF
:102B00000462446200F02AF98F212889FFF73EFF12
:102B10000421A889FFF73AFF40216889FFF736FFB3
:102B20007F21E889FFF732FF1F21288AFFF72EFF58
:102B30003F21688AFFF72AFF2889FFF74BFFA88902
:102B4000FFF748FF6889FFF745FFE889FFF742FF75
:102B5000288AFFF73FFF688AFFF73CFFFEE718B5BA
:102B600099B034210CA8FFF709FF14216846FFF73C
:102B700005FF1C2105A8FFF701FF25480168254A2C
:102B80000A40C10C1143016010200C9001201290EA
:102B900000241394A0200002149015940CA8FEF7B2
:102BA000F5FE0F20009001940294039404940021F8
:102BB0006846FFF7F9F80C20059009940A9405A8D7
:102BC00000F072FB1AB010BD01B5134B012269462B
:102BD0000D4800F0F9F8009802BD802149008842B4
:102BE00000D0704780B50D4800F04AF801BD0000E4
:102BF00000000020D83500082C10024000040050CE
:102C000000001110005400403C010020004800402A
:102C100000700040FFE7FFFFFFFF000034350008B1
:102C20004F6B756E616E205265676973746572696A
:102C30006E20446567657269203D2025640A0D0099
:102C40004F6B756D6120666F6E6B20736F6E756371
:102C5000203D2025640D0A0038B50500FFF7D8F99E
:102C600004000020C043854202D0044800782D189B
:102C7000FFF7CEF9001BA842FAD331BD6400002053
:102C80000EB4C0B5020003A801900020009001AB73
:102C90000121044878440C30FDF712FA029906B07D
:102CA000084700BF410A000010B50024074801682A
:102CB00040220A4302600020FFF788F9002801D073
:102CC000012401E0FFF70CFD200010BD00200240B0
:102CD00070B5020040325378202B14D14023C35CDE
:102CE000012B10D00123137024245470046825682C
:102CF0009D43256004682568164E2E4026600468B2
:102D0000256829431CE0022070BD70B502004032E6
:102D10005378202B12D14023C35C012B0ED001230A
:102D2000137024245470046825689D43256004684A
:102D30002568094E2E400902314301E0022070BD92
:102D40002160006801680B43036020205070002060
:102D5000107070BDFFEFFFFFFFF0FFFF38B50400FC
:102D600014D0250070356868002803D12870200031
:102D7000FFF7EAFC24206860206801680122914383
:102D80000160200000F091F8012801D1012032BD3E
:102D9000606A002802D0200000F09AF9206841689B
:102DA000084A0A404260206881682A229143816073
:102DB000FFE72068016801220A430260200000F05A
:102DC000EDF932BDFFB7FFFFFEB507001C00703004
:102DD0004068202867D10D000BD0160009D0B868D4
:102DE00080214901884206D13869002803D1E807CB
:102DF00001D50120FEBD7020385C012853D0012090
:102E000070217854002039007031C86021203900C9
:102E100070314860FFF7FCF850217E523900503184
:102E20004E80B96880225201914206D13969002949
:102E300003D1019402900C0011E029000025F8E76D
:102E400021788162641C07E03868002CF8D1298859
:102E5000C905C90D8162AD1C7088401E70803E009E
:102E60005036708800280AD001980090029B0022FA
:102E70008021380000F0C1F90028E5D009E0029B6C
:102E80000198009000224021380000F0B6F9002897
:102E900001D00320FEBD38007030202141600021A8
:102EA00001700020FEBD0220FEBDF8B50500102215
:102EB0001023002000242E6831687E4F0F40A9683F
:102EC00039432F690F4369693943EF690F4337600D
:102ED000776879493940EF680F437760A9690091B5
:102EE00076498E4203D0009F296A39430091B76822
:102EF00073493940009F0F43B76072498E4221D118
:102F00007149C96C8907890F04D0022928D03FD3A1
:102F1000032939E0012300936C4E6B4BE969D7021A
:102F2000B942009900D08FE0002908D0012967D06C
:102F3000022968D004296FD0082973D07AE0FFF7FE
:102F40001DF86BE094498E420CD15F49C96C0C2787
:102F50000F401BD0042F1BD0082F01D00C2F13E0E3
:102F6000022318E055498E4215D15749CF6CC02134
:102F7000090139400AD09701B94209D0D701B942B5
:102F8000EED0C0273F01B94204D004E0002302E0A4
:102F9000042300E0082349498E42BCD1002B06D00F
:102FA000022B11D0042B17D0082B18D07BE0FEF792
:102FB000E5FF002878D06E6871008919884272D3C5
:102FC000310381420DD26EE03F480068024001D0DB
:102FD000A448F0E7A448EEE7FEF79AFFE9E7C80B3C
:102FE000E9E7030E020270080021801859413200FF
:102FF0000023FEF782FC9D4941189D4A91424EE014
:10300000FEF7C6FF0AE0696848081B681A4001D04D
:10301000984A0AE0984A08E0FEF77AFF696840009B
:103020004A0802E06968480812038018FEF722FB8C
:1030300080B200E0012401001039B14233D20640D1
:103040000007400F30432BE0002908D0012909D0A8
:1030500002290AD0042911D0082915D01BE0FEF757
:103060008DFF0DE0FEF794FF0AE0696848081B68D1
:103070001A4001D07B4A05E07B4A03E0FEF748FF97
:1030800069684A08801802E069684808C019FEF7B4
:10309000F1FA80B200E0012401001039B14202D2FD
:1030A0002968C86000E001240020286668662000C6
:1030B000F2BD0000F369FFEFFFCFFFFF00480040C3
:1030C000FFF4FFFF0038014000100240F0FF000055
:1030D0002421415CC90706D501684A68674B134043
:1030E000826A1A434A602421415C890706D5016837
:1030F0004A68634B1340C26A1A434A602421415C08
:10310000490706D501684A685E4B1340026B1A43B3
:103110004A602421415C090706D501684A685A4B78
:103120001340426B1A434A602421415CC90606D50C
:1031300001688A68554B1340826B1A438A602421C8
:10314000415C890606D501688A68514B1340C26B01
:103150001A438A602421415C490611D501684A68F6
:103160004C4B1340026C1A434A60026C80235B0391
:103170009A4205D14A68484B1340426C1A434A6050
:103180002421415C090606D501684A68434B134077
:10319000806C18434860704700440040F8B5040054
:1031A00000257030C560FEF733FF07003C4E2068F5
:1031B0000068000709D500963B00002280218903A2
:1031C000200000F01AF800280DD1206800684007A0
:1031D0000BD500963B0000228021C903200000F09F
:1031E0000CF8002801D00320F2BD2100703120200E
:1031F000486088600D700020F2BDFEB5089E002476
:1032000005000F006846027001932868C0693840C5
:10321000B84201D1012000E00020694609788842C7
:103220001DD10020C0438642EFD0FEF7F1FE019988
:10323000401A864201D3002EE7D128680168194A56
:103240000A40026028688168012291438160280059
:10325000703020214160816004700320FEBD002099
:10326000FEBD000000093D000024F40000FDFFFF4A
:1032700000FD0F0000127A000048E801FFFFFDFF8B
:10328000FFFFFEFFFFFFFBFFFF7FFFFFFFEFFFFFE3
:10329000FFDFFFFFFFFFEFFFFFFF9FFFFFFFF7FFD6
:1032A000FFFFFF015FFEFFFFFEB50400574D2078D2
:1032B00080067CD50020019080204005A96B01404C
:1032C00004D1A96B0843A86301200190AF0D5048B9
:1032D0000068384013D14E48009000683843009988
:1032E0000860FEF795FE060000980068384006D199
:1032F000FEF78EFE801B6528F6D30320FEBD2968ED
:103300006068C02292030A40C021890301408A42BA
:103310000BD0C02189020140C0229202914204D107
:103320002968890301D50120FEBD2A6DC0218902CB
:10333000114022D0C0229202024091421DD020783A
:1033400080061AD5296D33480840296DFA020A43D0
:103350002A65296D304A0A402A65286507400CD045
:10336000FEF756FE0600286D800506D4FEF750FED7
:10337000801B2A498842F6D3BFE76168C0208002DB
:1033800002000A40824206D12A68254B13400201FE
:103390000A401A432A60296D626810400843286574
:1033A0000198002803D0A86B1E490140A96320782A
:1033B000C00705D5E86C03218843A1680143E9648F
:1033C0002078800705D5E86C0C218843E16801432B
:1033D000E9642078400705D5E86C1349014020696D
:1033E0000843E8642078000705D5E86C0F490140E0
:1033F00060690843E8642078000605D5E86C0C494C
:103400000140A0690843E8640020FEBD00100240AE
:1034100000700040FFFFFCFFFFFFF7FF8913000073
:10342000FFFFCFFFFFFFFFEFFFF3FFFFFFCFFFFF28
:10343000FFFFF3FF686A6C747A4C00007072696E6B
:1034400074665F733A20256E20646973616C6C6FDB
:10345000776564007072696E74663A2062616420F8
:10346000256E20617267756D656E74007072696E8D
:1034700074665F733A20626164202573206172670D
:10348000756D656E74000000000000007072696E5A
:1034900074665F733A2062616420256C73206172E8
:1034A00067756D656E740000000000006E616E004F
:1034B0004E414E00696E6600494E46003000FEE700
:1034C0000F480168820D0A430260C1680D4A0A4034
:1034D000C26001680C4A0A4002608168012291437F
:1034E00081600168094A0A400260C168084A0A40CE
:1034F000C260002101618020000506490860704714
:10350000001002400C40FF88F6FFF6FEFFFFFBFFB5
:10351000FFFF02FF08ED00E00000000000000000D7
:103520000102030406070809030406080C1018200A
:10353000300000000D0A2D2D2D2D2D2D2D2D2D2D82
:103540002D2D2D2D2D2D2D2D2D2D2D2D2D2D2D2DAB
:103550002D2D2D2D2D2D2D2D2D2D2D2D2D494E5437
:10356000455252555054202D20484152454B455408
:1035700020414C47494C414E44492D2D2D2D2D2D98
:103580002D2D2D2D2D2D2D2D2D2D2D2D2D2D2D2D6B
:103590002D2D2D2D2D2D2D2D0D0A000070B4012364
:1035A000002413E00168001D194202D04D466D1E33
:1035B00049190C60091D121F042AFAD20D00960742
:1035C00001D50C80AD1C1A4000D02C700268001D83
:1035D000002AE7D170BC704759617A6D6120666F2F
:1035E0006E6B7369796F6E75206B6F6E74726F6C32
:1035F00020736F6E756375203D2025640D0A0000F1
:1036000010B5074979441831064C7C44163404E05F
:10361000081D0A68891888470100A142F8D110BD29
:10362000080000002400000075FFFFFFD400000028
:103630003C01002000000000A3DBFFFF03010000AD
:10364000D20000000000002000F00DF8002801D09A
:10365000FFF7D6FF00BF00BF002000BF00BFFFF78D
:10366000E1F900F002F80120704780B500F002F89F
:1036700001BDFEE707463846FEF77EF9FBE77047D7
:10368000FEE77047704780B500F008F801BD80B5CF
:1036900080204000FFF758F901BDFEE7024841686D
:1036A000027889184160704764000020054801468F
:1036B00003B4684680F3098800BF00BF00BF00BFA5
:1036C000FFF7C2FFA5EDF5FEFF2902D90020C04398
:1036D00070470170012070470078401E8041C04350
:1036E000C00F704738B505000C00200000F006F848
:1036F000A04200D00025280032BDFEE780B5024977
:10370000FFF762FA02BD00BFF400002001488047C5
:1037100001480047C1340008AD3600080000000031
:1037200001020304FEE7FEE7FEE7FEE7FEE7FEE731
:10373000FEE7FEE7FEE7FEE7FEE7FEE7FEE7001234
:103740000001100731003000200022002408F0049E
:103750003D32003300310001520150320408F004C0
:103760000720003E3700080452FF01E3F612142040
:103770000400004E1300084C227445F1160120028B
:10378000D93600082C43C9363C2101200A02040125
:1037900001BC0100200C020020082104211B61084B
:0837A000123808F31124016442
:04000005080036AD0C
:00000001FF
